:0C0A8600011805011AC80117000119052C
:0C0BEC007F657ED67D27DDFEDEFADFF699
:010BF80022DA
:080C04007F017E2FDEFEDFFA06
:010C0C0022C5
:060BC900740A2518F5185E
:0C0BCF007F677E187D49DDFEDEFADFF650
:010BDB0022F7
:0B0BF900EF1FAC0670011E4C70F622CE
:100BDC00758901758A9D758CFFD28CD2A9D2AF22F2
:10071500E4F50CAE46AF47EE3395E0FDFCE4FBFA9D
:10072500795AF8120B508E468F47AE48AF49EE33D3
:1007350095E0FDFCE4FBFA795AF8120B508E488FD0
:1007450049AE4AAF4BEE3395E0FDFCE4FBFA795A2E
:10075500F8120B508E4A8F4BAE4EAF4FEE3395E0ED
:10076500FDFCE4FBFA7908F8120B508E4E8F4FAE64
:1007750050AF51EE3395E0FDFCE4FBFA7908F81231
:100785000B508E508F51AE52AF53EE3395E0FDFCBA
:10079500E4FBFA7908F8120B508E528F53AF35AE41
:1007A50034AD33AC32E47BE87A03F9F8120B508FA1
:1007B500358E348D338C32AC46AD47EC1201861242
:1007C50008D4C004C005C006C007AF35AE34AD338C
:1007D500AC32EC120181D003D002D001D00012005E
:1007E5000EC004C005C006C007AC48AD49EC1201F7
:1007F500861208D4D003D002D001D00012000E8F8B
:100805000B8E0A8D098C08120BDC30B33AE4FFFE1F
:10081500FDFCAB0BAA0AA909A80812011470287FD0
:10082500E87E03120BF930B31EE4FFFEFDFCAB0BB3
:10083500AA0AA909A808120114700C120BEC120BD4
:10084500C9740A2519F519120C0430B319E4FFFE11
:10085500FDFCAB0BAA0AA909A80812011460077FC1
:10086500E87E03120BF930B3A1E4FFFEFDFCAB0BF0
:10087500AA0AA909A808120114608F120BC9740AE3
:070885002519F51902080F07
:03000B00020B9451
:100B9400C0E0C0D0758A9D758CFF0517E517D39505
:100BA400185004D2908002C290E517D395195004CE
:100BB400D2918002C291E517C3951A4003751700BC
:050BC400D0D0D0E032AA
:100A9200085E0000000000000000084E0000000098
:100AA20000000000086E0000000000000000084680
:100AB20000000000000000000866000000000000C6
:100AC2000000083600000000000000000856000088
:100AD200000000000000083E0000000000000000CE
:0D0AE200082E0000000000000000012D00A3
:100AF0008B118A128913AB14AA15A9169000031240
:100B0000043EAB11AA12A91312046BAB14AA15A9C7
:100B10001690000212043EAB11AA12A91390000114
:100B200012047DAB14AA15A91690000112043EAB65
:100B300011AA12A91390000212047DAB14AA15A9E0
:100B400016120425AB11AA12A91390000302047D0A
:10059B00AE2D052D74212EF8A607E52164556003B9
:1005AB00020711E52DC3940B500122E52224B0B4B0
:1005BB00090040030207119005D075F003A4C58311
:1005CB0025F0C583730205EB02060802062302061B
:1005DB003E02065802067B02069D0206CC0206EF7F
:1005EB0085235E85245F8525608526618527628549
:1005FB002863E52AF564E529F565020711E524F57D
:10060B004EE523F54FE526F550E525F551E528F5A3
:10061B0052E527F553020711E524F56EE523F56F37
:10062B00E526F570E525F571E528F572E527F573F7
:10063B00020711E524F546E523F547E526F548E5E0
:10064B0025F549E528F54AE527F54B8018E524F50E
:10065B0066E523F567E526F568E525F569E528F5F3
:10066B006AE527F56BE52AF54CE529F54D020711EF
:10067B00E524F536E523F537E526F538E525F53997
:10068B00E528F53AE527F53BE52AF53CE529F53D67
:10069B008074752312752434752556752678751458
:1006AB00007515007516237B007A007956120AF037
:1006BB007514007515007516277B007A00795A8022
:1006CB00427514007515007516237B007A00793E70
:1006DB00120AF07514007515007516277B007A0049
:1006EB007942801FE524F52EE523F52FE526F5301D
:1006FB00E525F5317514007515007516277B007A05
:09070B00007932120AF0E4F52D28
:0107140022C2
:10000E00EC4D6011E8497017ED33EC3304600DE4EC
:10001E00FCFFFEFD22E933E8330470F80201F4120E
:10002E0001BF58046009E4CC24815006285009020F
:10003E0001FE2840030201FBC0E0EB4A7044B98088
:10004E0006D0E0FB0201EAEF4E701CBD8008EBFF0C
:10005E00EAFEE9FD80EBE98DF0A4FEE5F00200F783
:10006E00E9CDF9EAFEEBFFEF89F0A4FCE5F0CE89CD
:10007E00F0A42EFFE435F0CD89F0A42DFEE435F08A
:10008E008067EF4E7005BD80D780C3EF8BF0A4ACB8
:10009E00F0EE8BF0A42CFCE435F0F8EF8AF0A42CF3
:1000AE00E5F038FCE433CB8DF0A42CFCE5F03BF806
:1000BE00EE8AF0A42CFCE5F038F8E433CF89F0A4F6
:1000CE002CFCE5F038CF3400CE89F0A42FFFE5F0FC
:1000DE003EFEE433C98DF0A42EFEE5F039CD8AF054
:1000EE00A42FFFE5F03EFEE43DFD33D0E0FB5007CC
:1000FE000BBB000F0201FEEC2CFCEF33FFEE33FEC8
:06010E00ED33FD0201D6F5
:1001140074F8CC6480CCC86480C8F582046043C39E
:10012400EB9FF5F0EA9E42F0E99D42F0E89C45F031
:1001340060305018E5825FFFE582F42B5582FB5056
:10014400210ABA001D09B90019088016E5825BFB73
:10015400E582F42F5582FF50090EBE00050DBD0047
:10016400010CC3EB9FF5F0EA9E42F0E99D42F0E8F2
:0D0174009C45F06007CC4820E701B3EC2269
:1001810075F020800E75F010800575F0087D007EF9
:10019100007F003392D530D50312049FEC33401019
:1001A100EF33FFEE33FEED33FDEC33FCD5F0ED2202
:0E01B100E5F0247EA2D513CC92E7CDCEFF223E
:10088C003A70FA83BCAAE9E43E81E0F8BF9DE9E640
:10089C003F80000039283C1ABB9969663DA335E3BB
:1008AC00BF255DE73FC90FDB418DDBCCC44936EE7C
:1008BC0045C9913FC5B0F83D3F800000C317F534E2
:1008CC00452FFA73C60AFDDD12097B04A2E19200E2
:1008DC001420E01590088C74041203D88026120999
:1008EC007B30E102B20020E0EB8C0D8D0E8E0F8F71
:1008FC00109008A074041203D8A80DA90EAA0FAB6F
:10090C001012000EED4C6007300004EC6480FC22E9
:10091C0012097BC0E08C0D8D0E8E0F8F109008C4C9
:10092C0074031203D8A80DA90EAA0FAB1012000E57
:10093C00ECC50DFCEDC50EFDEEC50FFEEFC510FFB1
:10094C009008B474031203D8D082A80DA90EAA0F74
:10095C00AB10E58230E007120304B20080A6EFCBA7
:10096C00FFEECAFEEDC9FDECC8FC1203048095ED48
:10097C0033EC547FCC33920024605007D0E0D0E0AD
:10098C000201F47B837AF97922783E12000EEDF99C
:10099C0033ECF83324815011EFFBEEFA1203A11261
:1009AC000181ECB2E7FC120210ED33EC33602F2422
:1009BC0003F8C313FCED92E7FDE82481E4501FEC2F
:1009CC00F8EDF9EEFAEFFB1203A1EF04C2E0FCF52F
:1009DC008212018BECB2E7FC120210E58203FAEDF5
:0E09EC0033EC3360071413FCED92E7FDEA22B2
:1001BF00E9D2E7C933E833F892D5EDD2E7CD33EC86
:0701CF0033FC5002B2D522FF
:1001D600EC30E7100FBF000C0EBE00080DBD00048A
:1001E6000BEB6014A2D5EB13FCED92E7FD2274FF36
:1001F600FCFDFEFF22E480F8A2D574FF13FC7D808F
:03020600E480EFA2
:100209000201F4E86480F8E933E83360110460F02E
:10021900ED33EC337009E8FCE9FDEAFEEBFF22045B
:1002290060DED3EB9FEA9EE99DE8C2E78CF0C2F756
:1002390095F0400CE8CCF8E9CDF9EACEFAEBCFFB22
:100249001201BF85D0F05804700320D5B3E80470BB
:10025900075002B2D50201FE92D5EC0460F7E4CC56
:10026900C0E0C398F8603B94186008400DD0E0FBEB
:100279000201D6E4FBFAC9FC8028E830E406E4C9A7
:10028900FBE4CAFCE830E305E4C9CACBFCE854073F
:100299006010F8C3E913F9EA13FAEB13FBEC13FC4A
:1002A900D8F130F52FC3E49CFCEF9BFFEE9AFEEDED
:1002B90099FDD0E0FBEF4E4D4C701222DB03020199
:1002C900FBEC2CFCEF33FFEE33FEED33FDED30E7B5
:1002D900EB0201D6EF2BFFEE3AFEED39FDD0E0FB44
:1002E90050130BBB00030201FEED13FDEE13FEEFED
:0802F90013FFEC13FC0201D617
:100301000201FEEC5D046005E8590470030201F48A
:100311001201BF580460F6EC4860F2EC7004FDFE77
:10032100FF22C860DB2481C85009C39860025006CF
:100331000201FB9850CAF582E9294B4A7005AB824C
:100341000201EA75F0007C1A7880C3EF9BEE9AED0A
:1003510099400DC3EF9BFFEE9AFEED99FDE842F047
:10036100DC23ACF0D0E0FFD0E0FED0E0FDAB82209A
:10037100E7101BEB60BAEC2CFCEF33FFEE33FEED24
:1003810033FD0201D6E803F830E705C0F075F0004F
:10039100EF2FFFEE33FEED33FD40B830E7C280AA08
:1003A100EDD2E7CD33EC3392D524814006E4FFFE54
:1003B100FDFC22FCE4CFCECDCC24E0501174FF80B3
:1003C100EDC3CC13CCCD13CDCE13CECF13CF047050
:0703D100F030D5DE02049FAD
:1003D800C0E0EFFBEEFAEDF9ECF812000ED0E0F514
:1003E800F0EFFBEEFAEDF9ECF81204ADA3A3A3A32A
:1003F800E8C0E0E9C0E0EAC0E0EBC0E0C0F012000D
:100408000E1204BDA3A3A3A3120210D0F0D0E0FBE8
:0D041800D0E0FAD0E0F9D0E0F8D5F0D42221
:030000000209FAF8
:0C09FA00787FE4F6D8FD758175020A4193
:10042500BB010689828A83E0225002E722BBFE02D5
:09043500E32289828A83E4932208
:10043E00BB010CE58229F582E5833AF583E0225073
:10044E0006E92582F8E622BBFE06E92582F8E222BD
:0D045E00E58229F582E5833AF583E49322D7
:10046B00BB010689828A83F0225002F722BBFE0170
:02047B00F3226A
:10047D00F8BB010DE58229F582E5833AF583E8F0B5
:10048D00225006E92582C8F622BBFE05E92582C861
:02049D00F22249
:100B5000C2D5E830E70FB2D5E4C39BFBE49AFAE4D0
:100B600099F9E498F8EC30E717B2D5120B86120524
:100B700009E4C39BFBE49AFAE499F9E498F880034A
:100B800012050930D50DE4C39FFFE49EFEE49DFDF0
:040B9000E49CFC22C3
:0E049F00C3E49FFFE49EFEE49DFDE49CFC226E
:1004AD00E493FC740193FD740293FE740393FF2295
:1004BD00E493F8740193F9740293FA740393FB2295
:100A0600020715E493A3F8E493A34003F68001F2EA
:100A160008DFF48029E493A3F85407240CC8C333F1
:100A2600C4540F4420C8834004F456800146F6DFC0
:100A3600E4800B0102040810204080900A86E47EC0
:100A4600019360BCA3FF543F30E509541FFEE493B5
:100A5600A360010ECF54C025E060A840B8E493A37C
:100A6600FAE493A3F8E493A3C8C582C8CAC583CAA7
:100A7600F0A3C8C582C8CAC583CADFE9DEE780BE5F
:010AEF000006
:1004CD0075F008758200EF2FFFEE33FECD33CDCCE6
:1004DD0033CCC58233C5829BED9AEC99E582984069
:1004ED000CF582EE9BFEED9AFDEC99FC0FD5F0D646
:1004FD00E4CEFBE4CDFAE4CCF9A88222B800C1B970
:10050D000059BA002DEC8BF084CFCECDFCE5F0CBAD
:10051D00F97818EF2FFFEE33FEED33FDEC33FCEBE6
:10052D0033FB10D703994004EB99FB0FD8E5E4F9A1
:10053D00FA227818EF2FFFEE33FEED33FDEC33FC8E
:10054D00C933C910D7059BE99A4007EC9BFCE99A82
:10055D00F90FD8E0E4C9FAE4CCFB2275F010EF2FC7
:10056D00FFEE33FEED33FDCC33CCC833C810D707C7
:10057D009BEC9AE899400AED9BFDEC9AFCE899F802
:0E058D000FD5F0DAE4CDFBE4CCFAE4C8F92295
:00000001FF
